S00C0000535254432E73726563DC
S11300000C942A000C9447000C9447000C9447006D
S11300100C9447000C9447000C9447000C94470040
S11300200C9447000C9447000C9447000C94470030
S11300300C9447000C9447000C9447000C94470020
S11300400C9447000C9447000C9447000C94470010
S11300500C94470011241FBECFE5D8E0DEBFCDBF0E
S113006010E0A0E6B0E0E2EAFFE002C005900D92E5
S1130070A439B107D9F720E0A4E9B0E001C01D928A
S1130080A43CB207E1F70E94F7010C94CF070C944B
S1130090000087B18F7B87B987B18F7787B987B124
S11300A08F7D87B986B1887F86B986B1876086B926
S11300B086B1806886B986B1877F86B9089597B17D
S11300C0907E97B997B1892B87B986B1806486B938
S11300D0349BFECF86B1806186B924B185B190E0AE
S11300E0982F8827822B0895823001F18330C9F13B
S11300F0813009F050C0413059F428B381E090E0D8
S113010002C0880F991F6A95E2F7822B88BB089575
S1130110411141C028B381E090E002C0880F991FCB
S11301206A95E2F78095822388BB0895413059F49B
S113013025B381E090E002C0880F991F6A95E2F729
S1130140822B85BB0895411126C025B381E090E040
S113015002C0880F991F6A95E2F78095822385BBB8
S11301600895413059F422B381E090E002C0880F31
S1130170991F6A95E2F7822B82BB089541110BC047
S113018022B381E090E002C0880F991F6A95E2F7DC
S11301908095822382BB0895823069F08330A1F078
S11301A08130D9F486B390E002C0959587956A951D
S11301B0E2F78170089583B390E002C09595879526
S11301C06A95E2F78170089580B390E002C0959536
S11301D087956A95E2F78170089580E0089595B354
S11301E09D7F95BB95B39B7F95BBE9EFF0E031977D
S11301F0F1F700C0000095B3986095BBE9EFF0E01B
S11302003197F1F700C0000095B39F70282F207F2D
S1130210922B95BBE9EFF0E03197F1F700C00000B5
S113022095B3977F95BBE9EFF0E03197F1F700C004
S1130230000095B3986095BBE9EFF0E03197F1F7D2
S113024000C0000025B3F0E18F9FC0011124922F5C
S11302509F70892B85BB89EF90E00197F1F700C06F
S1130260000085B3877F85BBE9EFF0E03197F1F7B4
S113027000C00000089584B38E6084BB84B3806F93
S113028084BB82E00E94EF0088E20E94EF008CE0D1
S11302900E94EF0081E00E94EF00089595B3926000
S11302A095BB95B39B7F95BBE9EFF0E03197F1F7F0
S11302B000C0000095B3986095BBE9EFF0E031977A
S11302C0F1F700C0000095B39F70282F207F922B78
S11302D095BBE9EFF0E03197F1F700C0000095B36A
S11302E0977F95BBE9EFF0E03197F1F700C000008C
S11302F095B3986095BBE9EFF0E03197F1F700C052
S1130300000025B3F0E18F9FC0011124922F9F704C
S1130310892B85BB89EF90E00197F1F700C00000BD
S113032085B3877F85BBE9EFF0E03197F1F700C033
S1130330000008950F931F93CF938C01C0E003C076
S11303400E944E01CF5FF801EC0FF11D80818111F5
S1130350F7CFCF911F910F910895813031F070F054
S1130360823031F0833039F00AC090E4960F07C030
S113037090E1960F04C090E5960F01C0962F892F47
S113038080680E94EF000895CF93DF93EA010E94F2
S1130390AD01CE010E949A01DF91CF9108950F9390
S11303A01F93CF93DF93CDB7DEB760970FB6F89462
S11303B0DEBF0FBECDBF182F062FCA014AE050E0A2
S11303C0BE016F5F7F4F0E948F07AE014F5F5F4F8B
S11303D0602F812F0E94C40160960FB6F894DEBF8F
S11303E00FBECDBFDF91CF911F910F9108950E9451
S11303F012020E943B010E9449000E9451050E9482
S11304006D050E94F4040E94D2040E94B1040E946B
S11304105D030E9486030E94D1030E941C020E9475
S11304208905EBCF1ABA17BA14BA8FE081BB1BBA8D
S113043018BA15BA12BA0895EF92FF920F931F9348
S1130440CF93DF9340E650E060E080E00E94C40177
S113045043EB50E064E080E00E94C40145E650E0D4
S113046067E080E00E94C4016091A0007091A10047
S11304708091A2009091A3000E941206AB016AE051
S113048080E00E94CF0149E650E060E081E00E94F4
S1130490C4014AEA50E064E081E00E94C4014EE6EF
S11304A050E067E081E00E94C40160919C0070917B
S11304B09D0080919E0090919F000E941206AB01C6
S11304C06AE081E00E94CF0142E750E06CE080E006
S11304D00E94C4016DE080E00E94AD018FED0E9496
S11304E04E0144E750E06EE080E00E94C401409178
S11304F09A0050919B006DE081E00E94CF018FED46
S11305000E944E0147E750E060E082E00E94C4018F
S113051040919800509199009A01A9E8B8E80E9486
S11305208007EC01D695C795D295C295CF70CD279B
S1130530DF70CD272CE32C9FC0012D9F900D11243B
S1130540EA01C81BD90B9A010E9480078C011695F9
S11305500795129502950F7001271F700127CA0194
S113056060E17EE00E946C077B01CA30D10538F45B
S11305704CE750E06AE082E00E94C40123C00A30E4
S1130580110538F44CE750E067E082E00E94C401B2
S113059019C08091A8009091A9000A9738F44CE7FB
S11305A050E06AE083E00E94C4010CC08091AF0077
S11305B09091B0000A9730F44CE750E067E083E094
S11305C00E94C401A70164E082E00E94CF0143E6D7
S11305D050E065E082E00E94C401A80166E082E088
S11305E00E94CF0143E650E068E082E00E94C4012B
S11305F0AE0169E082E00E94CF014EE750E060E086
S113060083E00E94C40140919600509197009A01A2
S1130610A9E8B8E80E948007EC01D695C795D29561
S1130620C295CF70CD27DF70CD272CE32C9FC0015E
S11306302D9F900D1124EA01C81BD90B9A010E9429
S113064080078C0116950795129502950F70012766
S11306501F700127CA0160E17EE00E946C07AB01B4
S113066064E083E00E94CF0143E650E065E083E06C
S11306700E94C401A80166E083E00E94CF0143E622
S113068050E068E083E00E94C401AE0169E083E0C9
S11306900E94CF0143E850E06CE082E00E94C40174
S11306A04AEB50E06CE083E00E94C401DF91CF91FB
S11306B01F910F91FF90EF9008956091A0007091A9
S11306C0A1008091A2009091A30020E030E040E8D6
S11306D05FE30E94FA06181674F4E3EBF0E08FE48B
S11306E09EE49183808312824CE750E066E080E0D0
S11306F00E94C4010895E3EBF0E08FE496E4918353
S1130700808386E490E093838283089560919C00C3
S113071070919D0080919E0090919F0020E030E0B8
S113072040E85FE30E94FA06181674F4EAEAF0E07F
S11307308FE49EE49183808312824CE750E066E06C
S113074081E00E94C4010895EAEAF0E08FE496E4AF
S11307509183808386E490E093838283089541E0CB
S113076060E083E00E94740083EC99E00197F1F764
S113077000C0000040E060E083E00E94740008953F
S113078041E061E083E00E94740083EC99E001970A
S1130790F1F700C0000040E061E083E00E947400D3
S11307A008958F929F92AF92BF92CF92DF92EF9271
S11307B0FF928090A0009090A100A090A200B09021
S11307C0A30020E030E040E85FE3C501B4010E94EB
S11307D0FA0688231CF081E080939500C0909C0069
S11307E0D0909D00E0909E00F0909F0020E030E0CB
S11307F040E85FE3C701B6010E94FA0688231CF0B3
S113080081E08093940020E030E040E85FE3C5019C
S1130810B4010E949B05882314F41092950020E0F3
S113082030E040E85FE3C701B6010E949B058823DE
S113083014F4109294008091950081111CC0909141
S11308409400911118C02091980030919900232BA5
S113085091F42091960030919700232B61F40E942B
S1130860AF032FE342E48FE0215040408040E1F7A2
S113087000C000006DC0813099F5909194009130D2
S113088079F520919800309199008091960090918B
S113089097002817390780F0203448E3340760F4C0
S11308A00E94C0038FE392E42FE0815090402040E7
S11308B0E1F700C000004CC02817390708F048C011
S11308C08034984308F044C00E94AF038FE392E45D
S11308D02FE0815090402040E1F700C0000038C074
S11308E0209198003091990021343843D0F0813020
S11308F0C1F490919400911114C00E94C00383EF3D
S113090091E00197F1F700C000000E94AF039FE35C
S113091022E44FE0915020404040E1F700C0000045
S113092017C020919600309197002134384380F00D
S113093090919400913061F481110AC00E94AF0338
S113094083EF91E00197F1F700C000000E94C0031B
S1130950FF90EF90DF90CF90BF90AF909F908F90DB
S1130960089561E081E00E94CC0081110AC010C0AA
S113097086E0E8E8F0E0AAEBB0E001900D928A95F9
S1130980E1F761E081E00E94CC008111F1CF08958C
S113099085E0EEE8F0E0AAEBB0E001900D928A95D4
S11309A0E1F7089580E00E945F009C01A8E8B3E1AC
S11309B00E9480079B01AC01012E1AE056954795D1
S11309C0379527951A95D1F7102DADECBCEC0E9404
S11309D08007969587959695879596958795909394
S11309E09B0080939A0008958F929F92AF92BF923A
S11309F0CF92DF92EF92FF9281E00E945F00BC01F0
S1130A0080E090E00E94480620E030E44CE156E4A7
S1130A100E94FF0620E030E040E85AE30E94FF060F
S1130A204B015C0182E00E945F00BC0180E090E029
S1130A300E94480620E030E44CE156E40E94FF06A0
S1130A4020E030E040E85AE30E94FF066B017C019D
S1130A5020E030E04AE754E4C501B4010E94A00557
S1130A606093A0007093A1008093A2009093A300D0
S1130A7020E030E04AE754E4C701B6010E94A00533
S1130A8060939C0070939D0080939E0090939F00C0
S1130A90FF90EF90DF90CF90BF90AF909F908F909A
S1130AA0089580919500813099F4809198009091F7
S1130AB09900019690939900809398002FED82E21B
S1130AC092E0215080409040E1F700C0000008957A
S1130AD010929900109298000895809194008130AA
S1130AE099F48091960090919700019690939700C5
S1130AF0809396002FED82E292E021508040904056
S1130B00E1F700C00000089510929700109296003B
S1130B10089580919A0090919B004D9730F041E0A8
S1130B2062E083E00E947400089540E062E083E0A4
S1130B300E94740008950E94850608F481E00895D7
S1130B400E94B4050C94C0060E94B90658F00E9495
S1130B50B20640F029F45F3F29F00C94A906511124
S1130B600C94F4060C94AF060E94D10668F3992302
S1130B70B1F3552391F3951B550BBB27AA27621795
S1130B807307840738F09F5F5F4F220F331F441FA2
S1130B90AA1FA9F335D00E2E3AF0E0E832D09150D6
S1130BA05040E695001CCAF72BD0FE2F29D0660FC3
S1130BB0771F881FBB1F261737074807AB07B0E806
S1130BC009F0BB0B802DBF01FF2793585F4F3AF00C
S1130BD09E3F510578F00C94A9060C94F4065F3FEF
S1130BE0E4F3983ED4F3869577956795B795F79592
S1130BF09F5FC9F7880F911D9695879597F908957A
S1130C00E1E0660F771F881FBB1F62177307840715
S1130C10BA0720F0621B730B840BBA0BEE1F88F724
S1130C20E09508950E9419066894B1110C94F40695
S1130C3008950E94D90688F09F5798F0B92F9927F4
S1130C40B751B0F0E1F0660F771F881F991F1AF0B3
S1130C50BA95C9F714C0B13091F00E94F306B1E01F
S1130C6008950C94F306672F782F8827B85F39F01E
S1130C70B93FCCF3869577956795B395D9F73EF44C
S1130C8090958095709561957F4F8F4F9F4F0895F4
S1130C90E89409C097FB3EF4909580957095619512
S1130CA07F4F8F4F9F4F9923A9F0F92F96E9BB27C8
S1130CB09395F695879577956795B795F111F8CF44
S1130CC0FAF4BB0F11F460FF1BC06F5F7F4F8F4FAF
S1130CD09F4F16C0882311F096E911C0772321F0A5
S1130CE09EE8872F762F05C0662371F096E8862F3D
S1130CF070E060E02AF09A95660F771F881FDAF794
S1130D00880F9695879597F90895990F0008550FC0
S1130D10AA0BE0E8FEEF16161706E807F907C0F07D
S1130D2012161306E407F50798F0621B730B840B85
S1130D30950B39F40A2661F0232B242B252B21F45F
S1130D4008950A2609F4A140A6958FEF811D811DFF
S1130D50089597F99F6780E870E060E008959FEF39
S1130D6080EC089500240A9416161706180609063E
S1130D70089500240A94121613061406050608950D
S1130D80092E0394000C11F4882352F0BB0F40F495
S1130D90BF2B11F460FF04C06F5F7F4F8F4F9F4FD5
S1130DA0089557FD9058440F551F59F05F3F71F057
S1130DB04795880F97FB991F61F09F3F79F08795BE
S1130DC00895121613061406551FF2CF4695F1DF47
S1130DD008C0161617061806991FF1CF86957105D7
S1130DE0610508940895E894BB2766277727CB010B
S1130DF097F908950E94850608F48FEF08950E94DC
S1130E0012070C94C0060E94B20638F00E94B9067C
S1130E1020F0952311F00C94A9060C94AF0611242C
S1130E200C94F4060E94D10670F3959FC1F3950FBC
S1130E3050E0551F629FF001729FBB27F00DB11D5A
S1130E40639FAA27F00DB11DAA1F649F6627B00DEA
S1130E50A11D661F829F2227B00DA11D621F739FD3
S1130E60B00DA11D621F839FA00D611D221F749FE1
S1130E703327A00D611D231F849F600D211D822F28
S1130E80762F6A2F11249F5750409AF0F1F088234F
S1130E904AF0EE0FFF1FBB1F661F771F881F91507C
S1130EA05040A9F79E3F510580F00C94A9060C947C
S1130EB0F4065F3FE4F3983ED4F3869577956795FF
S1130EC0B795F795E7959F5FC1F7FE2B880F911DA6
S1130ED09695879597F90895AA1BBB1B51E107C006
S1130EE0AA1FBB1FA617B70710F0A61BB70B881FB6
S1130EF0991F5A95A9F780959095BC01CD01089545
S1130F00A29FB001B39FC001A39F700D811D112446
S1130F10911DB29F700D811D1124911D08954532BC
S1130F20510520F4423010F00C949A07FB01108212
S1130F30CB010895BB274A3031F4992322F4BDE252
S1130F40909581959F4F0C94A607BB27FB015527CD
S1130F50AA27880F991FAA1FA41710F0A41B839512
S1130F605051B9F7A05DAA3308F0A95DA193009789
S1130F7079F7B111B1931192CB010C94BF07DC0145
S1130F80FC01672F71917723E1F7329704C07C91BC
S1130F906D9370836291AE17BF07C8F30895F894F8
S1050FA0FFCF7D
S1130FA24143313A0049313A004143323A0049322D
S1130FB23A005400433A005254313A002000525449
S1130FC2323A00446F6F7200436C6F7365004F7066
S1070FD2656E000044
S9030000FC
