S012000063616C63756C61746F722E73726563E8
S11300000C9482000C949F000C949F000C949F000D
S11300100C949F000C949F000C949F000C949F00E0
S11300200C949F000C949F000C949F000C949F00D0
S11300300C949F000C949F000C949F000C949F00C0
S11300400C949F000C949F000C949F000C949F00B0
S11300500C949F00C200D100E200F30004011501DA
S11300602601370148015901B601B601B601B601AE
S1130070B601B601B601B601B601B601EF01EF0152
S1130080EF01ED01EF01EF01EF01EF01EF01EF01EE
S1130090EF01EF01EF01EF01EF01EF01EF01EF01DC
S11300A0EF01EF01EF01EF01EF01EF01EF01EF01CC
S11300B0EF01EF01EF01EF01EF01EF01C801C8010A
S11300C0EF01C801EF01C801EF01EF01EF01EF01FA
S11300D0EF01EF01EF01EF01EF01EF01EF01EF019C
S11300E0EF01DD01FB011902FD01FF010102030221
S11300F00502070209020B020D020F02110213028C
S11301001502170211241FBECFE5D8E0DEBFCDBF14
S113011010E0A0E6B0E0E0E5F7E002C005900D9243
S1130120AA36B107D9F720E0AAE6B0E001C01D92D3
S1130130A037B207E1F70E944F030C94A6030C9476
S113014000000E94990240E650E064E080E00E94D2
S113015022032FEF80E792E0215080409040E1F7A6
S113016000C000000E944B030895E0916D008E2FA3
S113017090E08A30910508F0ACC0FC01E65DFF4FC9
S11301800C94600380916B00811103C010926B008A
S1130190A0C0880F982F990F990F890F80936B0037
S11301A098C080916B00811104C081E080936B0042
S11301B090C0880F982F990F990F890F8F5F8093A4
S11301C06B0087C080916B00811104C082E0809332
S11301D06B007FC0880F982F990F990F890F8E5F3E
S11301E080936B0076C080916B00811104C083E022
S11301F080936B006EC0880F982F990F990F890F09
S11302008D5F80936B0065C080916B00811104C089
S113021084E080936B005DC0880F982F990F990F2D
S1130220890F8C5F80936B0054C080916B008111A7
S113023004C085E080936B004CC0880F982F990F01
S1130240990F890F8B5F80936B0043C080916B0083
S1130250811104C086E080936B003BC0880F982F07
S1130260990F990F890F8A5F80936B0032C0809138
S11302706B00811104C087E080936B002AC0880F53
S1130280982F990F990F890F895F80936B0021C074
S113029080916B00811104C088E080936B0019C0C9
S11302A0880F982F990F990F890F885F80936B009F
S11302B010C080916B00811104C089E080936B00B1
S11302C008C0880F982F990F990F890F875F809323
S11302D06B0080916F00811104C090916B0090932A
S11302E06C00882321F080916B0080936A0008954C
S11302F080916F008F3249F480916C0060916A00A4
S11303000E94540380936E001FC08A3251F480917E
S11303106C0090916A00899F802D112480936E0057
S113032013C08D3241F480916C0090916A00891B56
S113033080936E0009C08B3239F490916C008091E7
S11303406A00890F80936E0080916E0080936C0028
S113035008950E941B0280936D0090E08E339105F6
S1130360F0F5FC01EC5CFF4F0C94600380916B0092
S1130370811106C080916F00811102C00E944B035D
S11303800E94B50080916D0090E00E942D030895B5
S113039080916B00811106C080916F00811102C0B1
S11303A00E944B0380916D000E94AC0210926B007E
S11303B080916D0080936F0008950E94780160E041
S11303C081E00E940B0380916E0090E00E942D0357
S11303D010926B0010926F0008950E944B030895D1
S11303E0482F50E0FA013197E031F10518F5EE5845
S11303F0FF4F0C94600387E0089589E008958FE22D
S1130400089584E0089585E0089586E008958AE2D9
S1130410089581E0089582E0089583E008958DE2CF
S113042008958DE0089580E008958DE308958BE2AA
S1130430089588E0089580E02DC020E130E0082E82
S113044002C0220F331F0A94E2F721BB209522BB7E
S113045090E01DC020B3492F30E0092E02C035952D
S113046027950A94E2F720FD11C020B330E0042E52
S113047002C0359527950A94E2F720FFF6CF990F2D
S1130480990F890F8F5F0E94F00108959F5F943048
S113049008F38F5F843088F2CECF95B39D7F95BBF0
S11304A095B39B7F95BBEFECF7E03197F1F700C074
S11304B0000095B3986095BBEFECF7E03197F1F746
S11304C000C0000095B39F70282F207F922B95BB0E
S11304D0EFECF7E03197F1F700C0000095B3977F98
S11304E095BBEFECF7E03197F1F700C0000095B34E
S11304F0986095BBEFECF7E03197F1F700C000008E
S113050025B3F0E18F9FC0011124922F9F70892B96
S113051085BB8FEC97E00197F1F700C0000085B32D
S1130520877F85BBEFECF7E03197F1F700C000005F
S1130530089584B38E6084BB84B3806F84BB82E0EF
S11305400E944D0288E20E944D028CE00E944D02FE
S113055081E00E944D02089595B3926095BB95B3D6
S11305609B7F95BBEFECF7E03197F1F700C00000FB
S113057095B3986095BBEFECF7E03197F1F700C0C5
S1130580000095B39F70282F207F922B95BBEFEC32
S1130590F7E03197F1F700C0000095B3977F95BB62
S11305A0EFECF7E03197F1F700C0000095B39860E5
S11305B095BBEFECF7E03197F1F700C0000025B3ED
S11305C0F0E18F9FC0011124922F9F70892B85BB6E
S11305D08FEC97E00197F1F700C0000085B3877FA7
S11305E085BBEFECF7E03197F1F700C00000089508
S11305F00F931F93CF938C01C0E003C00E94AC0201
S1130600CF5FF801EC0FF11D80818111F7CFCF91FD
S11306101F910F910895813031F070F0823031F0E4
S1130620833039F00AC090E4960F07C090E1960F2A
S113063004C090E5960F01C0962F892F80680E9410
S11306404D020895CF93DF93EA010E940B03CE017C
S11306500E94F802DF91CF910895CF93DF93CDB735
S1130660DEB760970FB6F894DEBF0FBECDBF4AE089
S113067050E0BE016F5F7F4F0E946603CE0101967A
S11306800E94F80260960FB6F894DEBF0FBECDBF8D
S1130690DF91CF91089581E00E944D0208950E9458
S11306A0A1000E94A901FDCF991B79E004C0991F04
S11306B0961708F0961B881F7A95C9F780950895B8
S11306C0EE0FFF1F0590F491E02D0994453251057A
S11306D020F4423010F00C947103FB011082CB0122
S11306E00895BB274A3031F4992322F4BDE2909552
S11306F081959F4F0C947D03BB27FB015527AA27A7
S1130700880F991FAA1FA41710F0A41B839550519A
S1130710B9F7A05DAA3308F0A95DA193009779F712
S1130720B111B1931192CB010C949603DC01FC013D
S1130730672F71917723E1F7329704C07C916D9311
S113074070836291AE17BF07C8F30895F894FFCF82
S10D07502057656C636F6D6520008F
S9030000FC
