:100000000C942A000C943F000C943F000C943F0089
:100010000C943F000C943F000C943F000C943F0064
:100020000C943F000C943F000C943F000C943F0054
:100030000C943F000C943F000C943F000C943F0044
:100040000C943F000C943F000C943F000C943F0034
:100050000C943F0011241FBECFE5D8E0DEBFCDBF1A
:1000600010E0A0E6B0E0EEE4F2E102C005900D92EF
:10007000AA36B107D9F70E94D4020C9425090C9432
:100080000000CF93DF9300D01F92CDB7DEB78983F6
:100090006A834B838981882F90E08130910509F430
:1000A00042C0823091051CF4892B49F0DEC08230B9
:1000B000910509F46CC0039709F49DC0D6C08B81EB
:1000C0008130B1F48AE390E0FC018081482F8A817D
:1000D000282F30E081E090E002C0880F991F2A9518
:1000E000E2F7242F282B8AE390E0FC012083B6C09E
:1000F0008B81882309F0B2C08AE390E0FC01808103
:10010000482F8A81282F30E081E090E002C0880FDC
:10011000991F2A95E2F78095242F28238AE390E0FF
:10012000FC0120839BC08B818130B1F487E390E098
:10013000FC018081482F8A81282F30E081E090E007
:1001400002C0880F991F2A95E2F7242F282B87E3F6
:1001500090E0FC01208384C08B81882309F080C05B
:1001600087E390E0FC018081482F8A81282F30E0CE
:1001700081E090E002C0880F991F2A95E2F78095F0
:10018000242F282387E390E0FC01208369C08B8122
:100190008130B1F484E390E0FC018081482F8A81B2
:1001A000282F30E081E090E002C0880F991F2A9547
:1001B000E2F7242F282B84E390E0FC01208352C037
:1001C0008B81882309F04EC084E390E0FC0180819C
:1001D000482F8A81282F30E081E090E002C0880F0C
:1001E000991F2A95E2F78095242F282384E390E035
:1001F000FC01208337C08B818130B1F481E390E032
:10020000FC018081482F8A81282F30E081E090E036
:1002100002C0880F991F2A95E2F7242F282B81E32B
:1002200090E0FC01208320C08B818823E9F481E3E6
:1002300090E0FC018081482F8A81282F30E081E006
:1002400090E002C0880F991F2A95E2F78095242F2D
:10025000282381E390E0FC01208306C0000005C054
:10026000000003C0000001C0000000000F900F90CC
:100270000F90DF91CF910895CF93DF9300D01F921D
:10028000CDB7DEB789836A834B838981882F90E05D
:100290008130910509F442C0823091051CF4892B0C
:1002A00049F0DEC08230910509F46CC0039709F46F
:1002B0009DC0D6C08B818130B1F48BE390E0FC010E
:1002C0008081482F8A81282F30E081E090E002C0B1
:1002D000880F991F2A95E2F7242F282B8BE390E0B3
:1002E000FC012083B6C08B81882309F0B2C08BE368
:1002F00090E0FC018081482F8A81282F30E081E046
:1003000090E002C0880F991F2A95E2F78095242F6C
:1003100028238BE390E0FC0120839BC08B818130FC
:10032000B1F488E390E0FC018081482F8A81282F76
:1003300030E081E090E002C0880F991F2A95E2F733
:10034000242F282B88E390E0FC01208384C08B813C
:10035000882309F080C088E390E0FC018081482F69
:100360008A81282F30E081E090E002C0880F991F39
:100370002A95E2F78095242F282388E390E0FC015A
:10038000208369C08B818130B1F485E390E0FC016A
:100390008081482F8A81282F30E081E090E002C0E0
:1003A000880F991F2A95E2F7242F282B85E390E0E8
:1003B000FC01208352C08B81882309F04EC085E365
:1003C00090E0FC018081482F8A81282F30E081E075
:1003D00090E002C0880F991F2A95E2F78095242F9C
:1003E000282385E390E0FC01208337C08B81813096
:1003F000B1F482E390E0FC018081482F8A81282FAC
:1004000030E081E090E002C0880F991F2A95E2F762
:10041000242F282B82E390E0FC01208320C08B81D5
:100420008823E9F482E390E0FC018081482F8A81EF
:10043000282F30E081E090E002C0880F991F2A95B4
:10044000E2F78095242F282382E390E0FC012083AB
:1004500006C0000005C0000003C0000001C000008D
:1004600000000F900F900F90DF91CF910895CF93E0
:10047000DF9300D0CDB7DEB789836A838981882F67
:1004800090E08130910591F0823091051CF4892B28
:1004900039F01EC08230910579F0039799F018C0A9
:1004A0008BE390E02A81FC01208312C088E390E076
:1004B0002A81FC0120830CC085E390E02A81FC01A5
:1004C000208306C082E390E02A81FC0120830000A3
:1004D00000000F900F90DF91CF910895CF93DF939D
:1004E00000D01F92CDB7DEB78A836B8319828A81D1
:1004F000882F90E081309105E9F0823091051CF45D
:10050000892B39F04AC08230910529F10397A1F176
:1005100044C089E390E0FC018081882F90E02A812B
:10052000222F30E002C0959587952A95E2F78170D9
:10053000898333C086E390E0FC018081882F90E0BE
:100540002A81222F30E002C0959587952A95E2F7FF
:100550008170898322C083E390E0FC018081882F31
:1005600090E02A81222F30E002C0959587952A9548
:10057000E2F78170898311C080E390E0FC01808103
:10058000882F90E02A81222F30E002C09595879530
:100590002A95E2F781708983000089810F900F907E
:1005A0000F90DF91CF9108950F931F93CF93DF9317
:1005B000CDB7DEB7C556D1090FB6F894DEBF0FBE72
:1005C000CDBF41E060E080E00E94410041E061E099
:1005D00080E00E94410041E062E080E00E94410032
:1005E00041E063E080E00E94410041E064E080E09F
:1005F0000E94410041E065E080E00E94410041E04E
:1006000060E081E00E94410041E061E081E00E9401
:10061000410041E062E081E00E94410041E063E08E
:1006200081E00E94410041E064E081E00E944100DD
:1006300041E065E081E00E94410041E066E081E048
:100640000E94410041E060E082E00E94410041E000
:1006500061E082E00E94410041E062E082E00E94AD
:10066000410041E063E082E00E94410041E064E03B
:1006700082E00E94410041E065E082E00E9441008A
:1006800041E066E082E00E94410041E060E083E0FA
:100690000E94410041E061E083E00E94410041E0AE
:1006A00062E083E00E94410041E063E083E00E9459
:1006B000410041E064E083E00E94410041E065E0E8
:1006C00083E00E94410041E066E083E00E94410037
:1006D000CE01845A9F4F2AE0E0E6F0E0DC01019071
:1006E0000D922A95E1F71F8219821A821B821C82C1
:1006F0001D828F81882F90E09E01245A3F4F820FE8
:10070000931FFC018081682F81E00E9437028A815B
:10071000882F90E09E01245A3F4F820F931FFC01C7
:100720008081682F82E00E9437028C81882F90E0C0
:100730009E01245A3F4F820F931FFC018081682F36
:1007400083E00E9437021E8260C48E818F838BE318
:1007500090E0FC0120818BE390E02E7FFC01208360
:100760008BE390E0FC0120818BE390E02260FC01B0
:1007700020838F81282F30E088E390E0AE01445A37
:100780005F4F240F351FF9012081FC0120839E015A
:10079000225B3F4F80E090E0A0E2B1E4F90180836A
:1007A0009183A283B3838E010E5A1F4FCE01825BC9
:1007B0009F4F20E030E04AE755E4FC016081718101
:1007C000828193810E949008DC01CB01F801808333
:1007D0009183A283B383CE018E5A9F4F20E030E0F5
:1007E00040E85FE3FC0160817181828193810E9416
:1007F0000A0888234CF4CE018A5A9F4F21E030E04A
:10080000FC01318320836DC0CE018E5A9F4F20E0C2
:100810003FEF4FE757E4FC01608171818281938152
:100820000E948B0818160CF04AC0CE01825B9F4FC5
:1008300020E030E040E251E4FC016081718182817E
:1008400093810E949008DC01CB018E010A5A1F4F50
:10085000BC01CD010E940F08DC01CB01F80191839E
:10086000808324C0CE01885A9F4F20E931E0FC01EB
:1008700031832083CE01885A9F4FFC018081918172
:100880000197F1F79E01285A3F4FF9019183808328
:10089000CE018A5A9F4F9E012A5A3F4FF90120816B
:1008A000318121503109FC0131832083CE018A5AE4
:1008B0009F4FFC0180819181892BA1F62CC08E0174
:1008C0000A5A1F4FCE018E5A9F4FFC0160817181E1
:1008D000828193810E940F08DC01CB01F801918392
:1008E0008083CE01865A9F4F9E012A5A3F4FF901BD
:1008F00020813181FC0131832083CE01865A9F4FB4
:10090000FC01808191810197F1F79E01265A3F4FAA
:10091000F901918380838BE390E0FC0120818BE3DC
:1009200090E02D7FFC0120838BE390E0FC0120818F
:100930008BE390E02160FC0120838981282F30E047
:1009400088E390E0AE01445A5F4F240F351FF90150
:100950002081FC0120839E01205C3F4F80E090E0DD
:10096000A0E2B1E4F90180839183A283B3838E0175
:100970000C5B1F4FCE01805C9F4F20E030E04AE7C8
:1009800055E4FC0160817181828193810E9490080D
:10099000DC01CB01F80180839183A283B383CE0174
:1009A0008C5B9F4F20E030E040E85FE3FC0160811A
:1009B0007181828193810E940A0888234CF4CE01C0
:1009C000885B9F4F21E030E0FC01318320836DC0C4
:1009D000CE018C5B9F4F20E03FEF4FE757E4FC01D7
:1009E00060817181828193810E948B0818160CF0BE
:1009F0004AC0CE01805C9F4F20E030E040E251E4ED
:100A0000FC0160817181828193810E949008DC01E8
:100A1000CB018E01085B1F4FBC01CD010E940F0866
:100A2000DC01CB01F8019183808324C0CE01865B79
:100A30009F4F20E931E0FC0131832083CE01865BAA
:100A40009F4FFC01808191810197F1F79E01265B08
:100A50003F4FF90191838083CE01885B9F4F9E01B8
:100A6000285B3F4FF9012081318121503109FC0180
:100A700031832083CE01885B9F4FFC01808191816F
:100A8000892BA1F62CC08E01085B1F4FCE018C5B19
:100A90009F4FFC0160817181828193810E940F08C8
:100AA000DC01CB01F80191838083CE01845B9F4FF1
:100AB0009E01285B3F4FF90120813181FC01318388
:100AC0002083CE01845B9F4FFC018081918101973F
:100AD000F1F79E01245B3F4FF901918380838BE303
:100AE00090E0FC0120818BE390E02B7FFC012083D0
:100AF0008BE390E0FC0120818BE390E02860FC0117
:100B000020838A81282F30E085E390E0AE01445AAB
:100B10005F4F240F351FF9012081FC01208380E005
:100B200090E0A0E2B1E48AAB9BABACABBDAB20E004
:100B300030E04AE755E46AA97BA98CA99DA90E94E7
:100B40009008DC01CB018EAB9FABA8AFB9AF20E022
:100B500030E040E85FE36EA97FA988AD99AD0E94BF
:100B60000A0888232CF481E090E09BAF8AAF3FC055
:100B700020E03FEF4FE757E46EA97FA988AD99AD1C
:100B80000E948B0818164CF520E030E040E251E45A
:100B90006AA97BA98CA99DA90E949008DC01CB01C0
:100BA000BC01CD010E940F08DC01CB019BAF8AAFD5
:100BB0000FC080E991E09DAF8CAF8CAD9DAD0197EA
:100BC000F1F79DAF8CAF8AAD9BAD01979BAF8AAF1C
:100BD0008AAD9BAD892B69F714C06EA97FA988AD3A
:100BE00099AD0E940F08DC01CB019BAF8AAF8AADA3
:100BF0009BAD9FAF8EAF8EAD9FAD0197F1F79FAFCD
:100C00008EAF8BE390E0FC0120818BE390E0277FA7
:100C1000FC0120838BE390E0FC0120818BE390E0DA
:100C20002460FC0120838B81282F30E085E390E055
:100C3000AE01445A5F4F240F351FF9012081FC019A
:100C4000208380E090E0A0E2B1E48CA39DA3AEA35A
:100C5000BFA320E030E04AE755E46CA17DA18EA15E
:100C60009FA10E949008DC01CB0188A799A7AAA7A1
:100C7000BBA720E030E040E85FE368A579A58AA53E
:100C80009BA50E940A0888232CF481E090E09DA790
:100C90008CA73FC020E03FEF4FE757E468A579A558
:100CA0008AA59BA50E948B0818164CF520E030E021
:100CB00040E251E46CA17DA18EA19FA10E94900809
:100CC000DC01CB01BC01CD010E940F08DC01CB018E
:100CD0009DA78CA70FC080E991E09FA78EA78EA546
:100CE0009FA50197F1F79FA78EA78CA59DA50197BA
:100CF0009DA78CA78CA59DA5892B69F714C068A515
:100D000079A58AA59BA50E940F08DC01CB019DA7B0
:100D10008CA78CA59DA599AB88AB88A999A90197AB
:100D2000F1F799AB88AB8BE390E0FC0120818BE37A
:100D300090E02F7EFC0120838BE390E0FC0120817A
:100D40008BE390E02062FC0120838C81282F30E02F
:100D500082E390E0AE01445A5F4F240F351FF90142
:100D60002081FC01208380E090E0A0E2B1E48E8B42
:100D70009F8BA88FB98F20E030E04AE755E46E8959
:100D80007F89888D998D0E949008DC01CB018A8F24
:100D90009B8FAC8FBD8F20E030E040E85FE36A8D31
:100DA0007B8D8C8D9D8D0E940A0888232CF481E018
:100DB00090E09F8F8E8F3FC020E03FEF4FE757E4DA
:100DC0006A8D7B8D8C8D9D8D0E948B0818164CF53D
:100DD00020E030E040E251E46E897F89888D998D72
:100DE0000E949008DC01CB01BC01CD010E940F08DC
:100DF000DC01CB019F8F8E8F0FC080E991E099A31A
:100E000088A388A199A10197F1F799A388A38E8D52
:100E10009F8D01979F8F8E8F8E8D9F8D892B69F768
:100E200014C06A8D7B8D8C8D9D8D0E940F08DC0116
:100E3000CB019F8F8E8F8E8D9F8D9BA38AA38AA1BE
:100E40009BA10197F1F79BA38AA38BE390E0FC01A0
:100E500020818BE390E02F7DFC0120838BE390E0E9
:100E6000FC0120818BE390E02061FC0120838D81D7
:100E7000282F30E082E390E0AE01445A5F4F240F08
:100E8000351FF9012081FC01208380E090E0A0E281
:100E9000B1E488879987AA87BB8720E030E04AE7DA
:100EA00055E4688579858A859B850E949008DC01D8
:100EB000CB018C879D87AE87BF8720E030E040E87C
:100EC0005FE36C857D858E859F850E940A08882357
:100ED0002CF481E090E0998B888B3FC020E03FEFBD
:100EE0004FE757E46C857D858E859F850E948B0832
:100EF00018164CF520E030E040E251E46885798531
:100F00008A859B850E949008DC01CB01BC01CD0144
:100F10000E940F08DC01CB01998B888B0FC080E900
:100F200091E09B8B8A8B8A899B890197F1F79B8B38
:100F30008A8B888999890197998B888B8889998967
:100F4000892B69F714C06C857D858E859F850E94ED
:100F50000F08DC01CB01998B888B888999899D8B3F
:100F60008C8B8C899D890197F1F79D8B8C8B91E0FF
:100F70008F81893009F090E081E02981253008F0E7
:100F800080E08923882309F43DC089818530B9F543
:100F900091E08A81893009F090E081E02B81253051
:100FA00008F080E08923882331F18B818530F9F4C2
:100FB00091E08C81893009F090E081E02D81283129
:100FC00008F080E08923882371F08D81883139F41D
:100FD0001F8219821A821B821C821D8213C08D817E
:100FE0008F5F8D830FC08C818F5F8C830BC08B8153
:100FF0008F5F8B8307C08A818F5F8A8303C089815B
:101000008F5F89838E818F5F8E838E818A3008F413
:101010009CCB99CB0E943E0808F481E008950E9481
:101020006A0888F09F5798F0B92F9927B751B0F008
:10103000E1F0660F771F881F991F1AF0BA95C9F75C
:1010400014C0B13091F00E948408B1E008950C946E
:101050008408672F782F8827B85F39F0B93FCCF321
:10106000869577956795B395D9F73EF490958095D9
:10107000709561957F4F8F4F9F4F0895990F00088E
:10108000550FAA0BE0E8FEEF16161706E807F9075A
:10109000C0F012161306E407F50798F0621B730BF5
:1010A000840B950B39F40A2661F0232B242B252B76
:1010B00021F408950A2609F4A140A6958FEF811D19
:1010C000811D089557FD9058440F551F59F05F3FFB
:1010D00071F04795880F97FB991F61F09F3F79F05A
:1010E00087950895121613061406551FF2CF4695DC
:1010F000F1DF08C0161617061806991FF1CF86955E
:101100007105610508940895E894BB276627772741
:10111000CB0197F908950E943E0808F48FEF0895D7
:101120000E94A3080C9414090E94060938F00E943A
:101130000D0920F0952311F00C94FD080C9403097F
:1011400011240C9485080E94620870F3959FC1F3E6
:10115000950F50E0551F629FF001729FBB27F00D65
:10116000B11D639FAA27F00DB11DAA1F649F6627BA
:10117000B00DA11D661F829F2227B00DA11D621F09
:10118000739FB00DA11D621F839FA00D611D221FC3
:10119000749F3327A00D611D231F849F600D211DA7
:1011A000822F762F6A2F11249F5750409AF0F1F02A
:1011B00088234AF0EE0FFF1FBB1F661F771F881F93
:1011C00091505040A9F79E3F510580F00C94FD08C6
:1011D0000C9485085F3FE4F3983ED4F386957795A9
:1011E0006795B795F795E7959F5FC1F7FE2B880F39
:1011F000911D9695879597F9089597F99F6780E8CF
:1012000070E060E008959FEF80EC089500240A9458
:101210001616170618060906089500240A941216D1
:101220001306140605060895092E0394000C11F404
:10123000882352F0BB0F40F4BF2B11F460FF04C0B1
:0E1240006F5F7F4F8F4F9F4F0895F894FFCF41
:0A124E003F065B4F666D7D077F6F62
:00000001FF
