:100000000C942A000C9434000C9434000C943400AA
:100010000C9434000C9434000C9434000C94340090
:100020000C9434000C9434000C9434000C94340080
:100030000C9434000C9434000C9434000C94340070
:100040000C9434000C9434000C9434000C94340060
:100050000C94340011241FBECFE5D8E0DEBFCDBF25
:100060000E94C9020C94B5060C940000CF93DF9354
:1000700000D01F92CDB7DEB789836A834B83898115
:10008000882F90E08130910509F442C082309105BB
:100090001CF4892B49F0DEC08230910509F46CC054
:1000A000039709F49DC0D6C08B818130B1F48AE3F7
:1000B00090E0FC018081482F8A81282F30E081E088
:1000C00090E002C0880F991F2A95E2F7242F282B71
:1000D0008AE390E0FC012083B6C08B81882309F07D
:1000E000B2C08AE390E0FC018081482F8A81282FEA
:1000F00030E081E090E002C0880F991F2A95E2F776
:100100008095242F28238AE390E0FC0120839BC064
:100110008B818130B1F487E390E0FC018081482F2E
:100120008A81282F30E081E090E002C0880F991F7B
:100130002A95E2F7242F282B87E390E0FC01208307
:1001400084C08B81882309F080C087E390E0FC01A4
:100150008081482F8A81282F30E081E090E002C022
:10016000880F991F2A95E2F78095242F282387E38B
:1001700090E0FC01208369C08B818130B1F484E37D
:1001800090E0FC018081482F8A81282F30E081E0B7
:1001900090E002C0880F991F2A95E2F7242F282BA0
:1001A00084E390E0FC01208352C08B81882309F016
:1001B0004EC084E390E0FC018081482F8A81282F83
:1001C00030E081E090E002C0880F991F2A95E2F7A5
:1001D0008095242F282384E390E0FC01208337C0FE
:1001E0008B818130B1F481E390E0FC018081482F64
:1001F0008A81282F30E081E090E002C0880F991FAB
:100200002A95E2F7242F282B81E390E0FC0120833C
:1002100020C08B818823E9F481E390E0FC01808198
:10022000482F8A81282F30E081E090E002C0880FBB
:10023000991F2A95E2F78095242F282381E390E0E7
:10024000FC01208306C0000005C0000003C00000C0
:1002500001C0000000000F900F900F90DF91CF9130
:100260000895CF93DF9300D01F92CDB7DEB7898377
:100270006A834B838981882F90E08130910509F44E
:1002800042C0823091051CF4892B49F0DEC08230D7
:10029000910509F46CC0039709F49DC0D6C08B8109
:1002A0008130B1F48BE390E0FC018081482F8A819A
:1002B000282F30E081E090E002C0880F991F2A9536
:1002C000E2F7242F282B8BE390E0FC012083B6C0BB
:1002D0008B81882309F0B2C08BE390E0FC01808120
:1002E000482F8A81282F30E081E090E002C0880FFB
:1002F000991F2A95E2F78095242F28238BE390E01D
:10030000FC0120839BC08B818130B1F488E390E0B5
:10031000FC018081482F8A81282F30E081E090E025
:1003200002C0880F991F2A95E2F7242F282B88E313
:1003300090E0FC01208384C08B81882309F080C079
:1003400088E390E0FC018081482F8A81282F30E0EB
:1003500081E090E002C0880F991F2A95E2F780950E
:10036000242F282388E390E0FC01208369C08B813F
:100370008130B1F485E390E0FC018081482F8A81CF
:10038000282F30E081E090E002C0880F991F2A9565
:10039000E2F7242F282B85E390E0FC01208352C054
:1003A0008B81882309F04EC085E390E0FC018081B9
:1003B000482F8A81282F30E081E090E002C0880F2A
:1003C000991F2A95E2F78095242F282385E390E052
:1003D000FC01208337C08B818130B1F482E390E04F
:1003E000FC018081482F8A81282F30E081E090E055
:1003F00002C0880F991F2A95E2F7242F282B82E349
:1004000090E0FC01208320C08B818823E9F482E303
:1004100090E0FC018081482F8A81282F30E081E024
:1004200090E002C0880F991F2A95E2F78095242F4B
:10043000282382E390E0FC01208306C0000005C071
:10044000000003C0000001C0000000000F900F90EA
:100450000F90DF91CF910895CF93DF9300D0CDB768
:10046000DEB789836A838981882F90E08130910586
:1004700091F0823091051CF4892B39F01EC0823036
:10048000910579F0039799F018C08BE390E02A81E9
:10049000FC01208312C088E390E02A81FC012083C4
:1004A0000CC085E390E02A81FC01208306C082E332
:1004B00090E02A81FC012083000000000F900F9043
:1004C000DF91CF910895CF93DF9300D01F92CDB7E6
:1004D000DEB78A836B8319828A81882F90E081300E
:1004E0009105E9F0823091051CF4892B39F04AC05E
:1004F0008230910529F10397A1F144C089E390E08E
:10050000FC018081882F90E02B81222F30E002C0F7
:10051000959587952A95E2F78170898333C086E3A4
:1005200090E0FC018081882F90E02B81222F30E029
:1005300002C0959587952A95E2F78170898322C03C
:1005400083E390E0FC018081882F90E02B81222FB3
:1005500030E002C0959587952A95E2F781708983EE
:1005600011C080E390E0FC018081882F90E02B8116
:10057000222F30E002C0959587952A95E2F7817089
:100580008983000089810F900F900F90DF91CF91A8
:100590000895CF93DF93CDB7DEB7EC970FB6F894FD
:1005A000DEBF0FBECDBF41E061E081E00E943600BA
:1005B00041E062E081E00E94360041E064E081E0D9
:1005C0000E94360041E065E081E00E94360041E093
:1005D00066E081E00E94360041E067E081E00E9431
:1005E000360041E062E082E00E94360041E063E0D4
:1005F00082E00E94360041E067E082E00E9436001F
:1006000040E060E083E00E94360040E062E083E08A
:100610000E94360040E066E083E00E94360041E040
:1006200063E083E00E94360040E060E083E00E94E7
:10063000310140E062E083E00E94310140E066E089
:1006400083E00E943101198281E08A831B821C822F
:1006500040E061E081E00E94310141E062E081E040
:100660000E9431018B81882F90E082959295907F36
:100670009827807F98278D60682F81E00E942C0248
:1006800080E090E0A0EAB0E48B8B9C8BAD8BBE8BBE
:1006900020E030E04AE755E46B897C898D899E89AA
:1006A0000E942006DC01CB018F8B988FA98FBA8F17
:1006B00020E030E040E85FE36F89788D898D9A8D86
:1006C0000E949A0588232CF481E090E09C8F8B8F08
:1006D0003FC020E03FEF4FE757E46F89788D898D69
:1006E0009A8D0E941B0618164CF520E030E040E27F
:1006F00051E46B897C898D899E890E942006DC01EA
:10070000CB01BC01CD010E949F05DC01CB019C8F78
:100710008B8F0FC080E991E09E8F8D8F8D8D9E8D88
:100720000197F1F79E8F8D8F8B8D9C8D01979C8FFC
:100730008B8F8B8D9C8D892B69F714C06F89788D79
:10074000898D9A8D0E949F05DC01CB019C8F8B8F38
:100750008B8D9C8D98A38F8F8F8D98A10197F1F72A
:1007600098A38F8F40E062E081E00E94310141E078
:1007700061E081E00E9431018C81882F90E08295B8
:100780009295907F9827807F98278B60682F81E0D3
:100790000E942C0280E090E0A0EAB0E48D839E836A
:1007A000AF83B88720E030E04AE755E46D817E8171
:1007B0008F8198850E942006DC01CB0189879A876A
:1007C000AB87BC8720E030E040E85FE369857A854D
:1007D0008B859C850E949A0588232CF481E090E00B
:1007E0009E878D873FC020E03FEF4FE757E4698544
:1007F0007A858B859C850E941B0618164CF520E097
:1008000030E040E251E46D817E818F8198850E94C5
:100810002006DC01CB01BC01CD010E949F05DC015B
:10082000CB019E878D870FC080E991E0988B8F87E1
:100830008F8598890197F1F7988B8F878D859E8595
:1008400001979E878D878D859E85892B69F714C0BA
:1008500069857A858B859C850E949F05DC01CB018B
:100860009E878D878D859E859A8B898B89899A89AC
:100870000197F1F79A8B898B60E083E00E94630215
:10088000882381F08B81893011F41B8203C08B8116
:100890008F5F8B83000060E083E00E946302882307
:1008A000D1F7D6CE66E083E00E946302882381F010
:1008B0008C81893011F41C8203C08C818F5F8C8302
:1008C000000066E083E00E9463028823D1F7C0CE77
:1008D00062E083E00E946302882309F4B9CE91E0CC
:1008E0008B81893009F090E081E02C81243009F07F
:1008F00080E08923882331F041E063E083E00E94B7
:10090000310111C140E063E083E00E94310141E028
:1009100063E082E00E943101998181E08927898327
:10092000498162E082E00E94310180E090E0A0EF26
:10093000B1E48FA798ABA9ABBAAB20E030E04AE7AF
:1009400055E46FA578A989A99AA90E942006DC011F
:10095000CB018BAB9CABADABBEAB20E030E040E855
:100960005FE36BA97CA98DA99EA90E949A058823A3
:100970002CF481E090E098AF8FAB3FC020E03FEFD8
:100980004FE757E46BA97CA98DA99EA90E941B067D
:1009900018164CF520E030E040E251E46FA578A94C
:1009A00089A99AA90E942006DC01CB01BC01CD01D6
:1009B0000E949F05DC01CB0198AF8FAB0FC080E98F
:1009C00091E09AAF89AF89AD9AAD0197F1F79AAFEF
:1009D00089AF8FA998AD019798AF8FAB8FA998ADCC
:1009E000892B69F714C06BA97CA98DA99EA90E94C7
:1009F0009F05DC01CB0198AF8FAB8FA998AD9CAF61
:100A00008BAF8BAD9CAD0197F1F79CAF8BAF9A810B
:100A100081E089278A834A8167E082E00E94310170
:100A200080E090E0A0EAB1E489A39AA3ABA3BCA3C1
:100A300020E030E04AE755E469A17AA18BA19CA1AE
:100A40000E942006DC01CB018DA39EA3AFA3B8A713
:100A500020E030E040E85FE36DA17EA18FA198A582
:100A60000E949A0588232CF481E090E09AA789A738
:100A70003FC020E03FEF4FE757E46DA17EA18FA17B
:100A800098A50E941B0618164CF520E030E040E2C5
:100A900051E469A17AA18BA19CA10E942006DC01EE
:100AA000CB01BC01CD010E949F05DC01CB019AA7BF
:100AB00089A70FC080E991E09CA78BA78BA59CA577
:100AC0000197F1F79CA78BA789A59AA501979AA7EB
:100AD00089A789A59AA5892B69F714C06DA17EA164
:100AE0008FA198A50E949F05DC01CB019AA789A739
:100AF00089A59AA59EA78DA78DA59EA50197F1F71B
:100B00009EA78DA761E083E00E946302882309F419
:100B1000FECE84E590E0FC01208184E590E02F7E0C
:100B2000FC012083F4CE66E083E00E946302882308
:100B3000D1F78ECD0E94CE0508F481E008950E9481
:100B4000FA0588F09F5798F0B92F9927B751B0F060
:100B5000E1F0660F771F881F991F1AF0BA95C9F741
:100B600014C0B13091F00E941406B1E008950C94C5
:100B70001406672F782F8827B85F39F0B93FCCF378
:100B8000869577956795B395D9F73EF490958095BE
:100B9000709561957F4F8F4F9F4F0895990F000873
:100BA000550FAA0BE0E8FEEF16161706E807F9073F
:100BB000C0F012161306E407F50798F0621B730BDA
:100BC000840B950B39F40A2661F0232B242B252B5B
:100BD00021F408950A2609F4A140A6958FEF811DFE
:100BE000811D089557FD9058440F551F59F05F3FE0
:100BF00071F04795880F97FB991F61F09F3F79F03F
:100C000087950895121613061406551FF2CF4695C0
:100C1000F1DF08C0161617061806991FF1CF869542
:100C20007105610508940895E894BB276627772726
:100C3000CB0197F908950E94CE0508F48FEF08952F
:100C40000E9433060C94A4060E94960638F00E9477
:100C50009D0620F0952311F00C948D060C949306BC
:100C600011240C9415060E94F20570F3959FC1F3B0
:100C7000950F50E0551F629FF001729FBB27F00D4A
:100C8000B11D639FAA27F00DB11DAA1F649F66279F
:100C9000B00DA11D661F829F2227B00DA11D621FEE
:100CA000739FB00DA11D621F839FA00D611D221FA8
:100CB000749F3327A00D611D231F849F600D211D8C
:100CC000822F762F6A2F11249F5750409AF0F1F00F
:100CD00088234AF0EE0FFF1FBB1F661F771F881F78
:100CE00091505040A9F79E3F510580F00C948D061D
:100CF0000C9415065F3FE4F3983ED4F38695779500
:100D00006795B795F795E7959F5FC1F7FE2B880F1D
:100D1000911D9695879597F9089597F99F6780E8B3
:100D200070E060E008959FEF80EC089500240A943D
:100D30001616170618060906089500240A941216B6
:100D40001306140605060895092E0394000C11F4E9
:100D5000882352F0BB0F40F4BF2B11F460FF04C096
:0E0D60006F5F7F4F8F4F9F4F0895F894FFCF26
:00000001FF
